{
  "_format": "hh-sol-artifact-1",
  "contractName": "HateSpeechAgent",
  "sourceName": "contracts/HateSpeechAgent.sol",
  "abi": [
    {
      "inputs": [
        {
          "internalType": "address",
          "name": "initialOracleAddress",
          "type": "address"
        },
        {
          "internalType": "string",
          "name": "systemPrompt",
          "type": "string"
        }
      ],
      "stateMutability": "nonpayable",
      "type": "constructor"
    },
    {
      "anonymous": false,
      "inputs": [
        {
          "indexed": true,
          "internalType": "address",
          "name": "owner",
          "type": "address"
        },
        {
          "indexed": true,
          "internalType": "uint256",
          "name": "runId",
          "type": "uint256"
        }
      ],
      "name": "AgentRunCreated",
      "type": "event"
    },
    {
      "anonymous": false,
      "inputs": [
        {
          "indexed": true,
          "internalType": "string",
          "name": "newKnowledgeBaseCID",
          "type": "string"
        }
      ],
      "name": "KnowledgeBaseUpdated",
      "type": "event"
    },
    {
      "anonymous": false,
      "inputs": [
        {
          "indexed": true,
          "internalType": "address",
          "name": "newOracleAddress",
          "type": "address"
        }
      ],
      "name": "OracleAddressUpdated",
      "type": "event"
    },
    {
      "inputs": [
        {
          "internalType": "uint256",
          "name": "",
          "type": "uint256"
        }
      ],
      "name": "agentRuns",
      "outputs": [
        {
          "internalType": "address",
          "name": "owner",
          "type": "address"
        },
        {
          "internalType": "uint256",
          "name": "responsesCount",
          "type": "uint256"
        },
        {
          "internalType": "uint8",
          "name": "max_iterations",
          "type": "uint8"
        },
        {
          "internalType": "bool",
          "name": "is_finished",
          "type": "bool"
        },
        {
          "internalType": "uint256",
          "name": "messagesCount",
          "type": "uint256"
        }
      ],
      "stateMutability": "view",
      "type": "function"
    },
    {
      "inputs": [
        {
          "internalType": "uint256",
          "name": "agentId",
          "type": "uint256"
        }
      ],
      "name": "getMessageHistoryContents",
      "outputs": [
        {
          "internalType": "string[]",
          "name": "",
          "type": "string[]"
        }
      ],
      "stateMutability": "view",
      "type": "function"
    },
    {
      "inputs": [
        {
          "internalType": "uint256",
          "name": "agentId",
          "type": "uint256"
        }
      ],
      "name": "getMessageHistoryRoles",
      "outputs": [
        {
          "internalType": "string[]",
          "name": "",
          "type": "string[]"
        }
      ],
      "stateMutability": "view",
      "type": "function"
    },
    {
      "inputs": [
        {
          "internalType": "uint256",
          "name": "runId",
          "type": "uint256"
        }
      ],
      "name": "isRunFinished",
      "outputs": [
        {
          "internalType": "bool",
          "name": "",
          "type": "bool"
        }
      ],
      "stateMutability": "view",
      "type": "function"
    },
    {
      "inputs": [],
      "name": "knowledgeBase",
      "outputs": [
        {
          "internalType": "string",
          "name": "",
          "type": "string"
        }
      ],
      "stateMutability": "view",
      "type": "function"
    },
    {
      "inputs": [
        {
          "internalType": "uint256",
          "name": "runId",
          "type": "uint256"
        },
        {
          "internalType": "string",
          "name": "response",
          "type": "string"
        },
        {
          "internalType": "string",
          "name": "errorMessage",
          "type": "string"
        }
      ],
      "name": "onOracleFunctionResponse",
      "outputs": [],
      "stateMutability": "nonpayable",
      "type": "function"
    },
    {
      "inputs": [
        {
          "internalType": "uint256",
          "name": "runId",
          "type": "uint256"
        },
        {
          "internalType": "string[]",
          "name": "documents",
          "type": "string[]"
        },
        {
          "internalType": "string",
          "name": "",
          "type": "string"
        }
      ],
      "name": "onOracleKnowledgeBaseQueryResponse",
      "outputs": [],
      "stateMutability": "nonpayable",
      "type": "function"
    },
    {
      "inputs": [
        {
          "internalType": "uint256",
          "name": "runId",
          "type": "uint256"
        },
        {
          "components": [
            {
              "internalType": "string",
              "name": "id",
              "type": "string"
            },
            {
              "internalType": "string",
              "name": "content",
              "type": "string"
            },
            {
              "internalType": "string",
              "name": "functionName",
              "type": "string"
            },
            {
              "internalType": "string",
              "name": "functionArguments",
              "type": "string"
            },
            {
              "internalType": "uint64",
              "name": "created",
              "type": "uint64"
            },
            {
              "internalType": "string",
              "name": "model",
              "type": "string"
            },
            {
              "internalType": "string",
              "name": "systemFingerprint",
              "type": "string"
            },
            {
              "internalType": "string",
              "name": "object",
              "type": "string"
            },
            {
              "internalType": "uint32",
              "name": "completionTokens",
              "type": "uint32"
            },
            {
              "internalType": "uint32",
              "name": "promptTokens",
              "type": "uint32"
            },
            {
              "internalType": "uint32",
              "name": "totalTokens",
              "type": "uint32"
            }
          ],
          "internalType": "struct IOracle.OpenAiResponse",
          "name": "response",
          "type": "tuple"
        },
        {
          "internalType": "string",
          "name": "errorMessage",
          "type": "string"
        }
      ],
      "name": "onOracleOpenAiLlmResponse",
      "outputs": [],
      "stateMutability": "nonpayable",
      "type": "function"
    },
    {
      "inputs": [],
      "name": "oracleAddress",
      "outputs": [
        {
          "internalType": "address",
          "name": "",
          "type": "address"
        }
      ],
      "stateMutability": "view",
      "type": "function"
    },
    {
      "inputs": [],
      "name": "prompt",
      "outputs": [
        {
          "internalType": "string",
          "name": "",
          "type": "string"
        }
      ],
      "stateMutability": "view",
      "type": "function"
    },
    {
      "inputs": [
        {
          "internalType": "string",
          "name": "query",
          "type": "string"
        },
        {
          "internalType": "uint8",
          "name": "max_iterations",
          "type": "uint8"
        }
      ],
      "name": "runAgent",
      "outputs": [
        {
          "internalType": "uint256",
          "name": "i",
          "type": "uint256"
        }
      ],
      "stateMutability": "nonpayable",
      "type": "function"
    },
    {
      "inputs": [
        {
          "internalType": "string",
          "name": "cid",
          "type": "string"
        }
      ],
      "name": "setKnowledgeBaseCid",
      "outputs": [],
      "stateMutability": "nonpayable",
      "type": "function"
    },
    {
      "inputs": [
        {
          "internalType": "address",
          "name": "newOracleAddress",
          "type": "address"
        }
      ],
      "name": "setOracleAddress",
      "outputs": [],
      "stateMutability": "nonpayable",
      "type": "function"
    }
  ],
  "bytecode": "0x60806040523480156200001157600080fd5b506040516200262d3803806200262d8339810160408190526200003491620002c5565b60048054336001600160a01b031991821617909155600580549091166001600160a01b03841617905560006200006b82826200044c565b50604051806101a001604052806040518060400160405280601381526020017f6770742d342d747572626f2d70726576696577000000000000000000000000008152508152602001601560000b81526020016040518060200160405280600081525081526020016103e863ffffffff168152602001601560000b81526020016040518060400160405280600f81526020016e7b2274797065223a2274657874227d60881b815250815260200160008152602001604051806020016040528060008152508152602001600a8152602001606581526020016040518061020001604052806101d381526020016200245a6101d39139815260408051808201825260048152636175746f60e01b60208281019190915280840191909152815190810182526000815291015280516006908190620001a690826200044c565b50602082015160018201805460ff191660ff90921691909117905560408201516002820190620001d790826200044c565b506060820151600382018054608085015160ff166401000000000264ffffffffff1990911663ffffffff9093169290921791909117905560a082015160048201906200022490826200044c565b5060c0820151600582015560e082015160068201906200024590826200044c565b506101008201516007820155610120820151600882015561014082015160098201906200027390826200044c565b50610160820151600a8201906200028b90826200044c565b50610180820151600b820190620002a390826200044c565b50905050505062000518565b634e487b7160e01b600052604160045260246000fd5b60008060408385031215620002d957600080fd5b82516001600160a01b0381168114620002f157600080fd5b602084810151919350906001600160401b03808211156200031157600080fd5b818601915086601f8301126200032657600080fd5b8151818111156200033b576200033b620002af565b604051601f8201601f19908116603f01168101908382118183101715620003665762000366620002af565b8160405282815289868487010111156200037f57600080fd5b600093505b82841015620003a3578484018601518185018701529285019262000384565b60008684830101528096505050505050509250929050565b600181811c90821680620003d057607f821691505b602082108103620003f157634e487b7160e01b600052602260045260246000fd5b50919050565b601f82111562000447576000816000526020600020601f850160051c81016020861015620004225750805b601f850160051c820191505b8181101562000443578281556001016200042e565b5050505b505050565b81516001600160401b03811115620004685762000468620002af565b6200048081620004798454620003bb565b84620003f7565b602080601f831160018114620004b857600084156200049f5750858301515b600019600386901b1c1916600185901b17855562000443565b600085815260208120601f198616915b82811015620004e957888601518255948401946001909101908401620004c8565b5085821015620005085787850151600019600388901b60f8161c191681555b5050505050600190811b01905550565b611f3280620005286000396000f3fe608060405234801561001057600080fd5b50600436106100cf5760003560e01c8063a89ae4ba1161008c578063daec051f11610066578063daec051f1461023e578063eb17429a1461025f578063ed6e39e51461027f578063f997cc251461029257600080fd5b8063a89ae4ba14610177578063c63b0295146101a2578063ccac7a911461022b57600080fd5b80632843d135146100d45780632eab9c81146100e95780634c69c00f146101295780634cecd88e1461013c5780637397454d1461014f5780637c65d71114610162575b600080fd5b6100e76100e2366004611527565b61029a565b005b6101146100f7366004611618565b600090815260026020526040902060030154610100900460ff1690565b60405190151581526020015b60405180910390f35b6100e7610137366004611631565b6105c2565b6100e761014a366004611692565b6106b6565b6100e761015d366004611843565b610aa5565b61016a610c14565b60405161012091906118e9565b60055461018a906001600160a01b031681565b6040516001600160a01b039091168152602001610120565b6101f16101b0366004611618565b600260208190526000918252604090912080549181015460038201546004909201546001600160a01b0390931692909160ff80821692610100909204169085565b604080516001600160a01b039096168652602086019490945260ff909216928401929092529015156060830152608082015260a001610120565b6100e76102393660046118fc565b610ca2565b61025161024c366004611939565b610d87565b604051908152602001610120565b61027261026d366004611618565b611115565b6040516101209190611991565b61027261028d366004611618565b61127e565b61016a6113e0565b6005546001600160a01b031633146102cd5760405162461bcd60e51b81526004016102c4906119f5565b60405180910390fd5b60008381526002602090815260409182902091516102f69101633ab9b2b960e11b815260040190565b6040516020818303038152906040528051906020012081600101600183600401546103219190611a39565b8154811061033157610331611a4c565b90600052602060002090600202016000016040516020016103529190611a9c565b60405160208183030381529060405280519060200120146103b55760405162461bcd60e51b815260206004820152601c60248201527f4e6f206d65737361676520746f2061646420636f6e7465787420746f0000000060448201526064016102c4565b600081600101600183600401546103cc9190611a39565b815481106103dc576103dc611a4c565b9060005260206000209060020201905060008160010180546103fd90611a62565b80601f016020809104026020016040519081016040528092919081815260200182805461042990611a62565b80156104765780601f1061044b57610100808354040283529160200191610476565b820191906000526020600020905b81548152906001019060200180831161045957829003601f168201915b505050505090506000855111156104aa57806040516020016104989190611b12565b60405160208183030381529060405290505b60005b85518110156104fc57818682815181106104c9576104c9611a4c565b60200260200101516040516020016104e2929190611b4a565b60408051601f1981840301815291905291506001016104ad565b506001820161050b8282611bd5565b50600554604051633c38a5f560e01b81526001600160a01b0390911690633c38a5f59061053f908990600690600401611d12565b6020604051808303816000875af115801561055e573d6000803e3d6000fd5b505050506040513d601f19601f820116820180604052508101906105829190611e23565b50825460405187916001600160a01b0316907f9697c88a6be3b3ed5062f2dcbd719a10914832320686f14e24f7756210a6685e90600090a3505050505050565b6004546001600160a01b031633146106125760405162461bcd60e51b815260206004820152601360248201527221b0b63632b91034b9903737ba1037bbb732b960691b60448201526064016102c4565b6004546001600160a01b0316331461066c5760405162461bcd60e51b815260206004820152601760248201527f43616c6c6572206973206e6f7420746865206f776e657200000000000000000060448201526064016102c4565b600580546001600160a01b0319166001600160a01b0383169081179091556040517f107a9fafffb7ac890f780879e423760c9ffea8dcee8045681f40f542aede2cb890600090a250565b6005546001600160a01b031633146106e05760405162461bcd60e51b81526004016102c4906119f5565b600083815260026020908152604080832081519283019091529181526107079083906113ed565b6107b9576040805180820182526060808252602080830191825283518085019094526009845268185cdcda5cdd185b9d60ba1b8482015292825284905260018381018054918201815560009081529290922081519192839260029091029091019081906107749082611bd5565b50602082015160018201906107899082611bd5565b50505060028201805490600061079e83611e3c565b909155505050600301805461ff001916610100179055505050565b6003810154600282015460ff909116116107e257600301805461ff001916610100179055505050565b6107ff8360200151604051806020016040528060008152506113ed565b6109e757604080518082019091526060808252602082015260208085015182820152604080518082019091526009815268185cdcda5cdd185b9d60ba1b8183015282526001808401805491820181556000908152919091208251839260020290910190819061086e9082611bd5565b50602082015160018201906108839082611bd5565b50505060028201805490600061089883611e3c565b919050555081600201546001036109af5760408051808201909152606080825260208201525b6040805160208082018352600080835284820192909252825180840190935260048352633ab9b2b960e11b838201529183526001808601805491820181558252919020825183926002029091019081906109189082611bd5565b506020820151600182019061092d9082611bd5565b5050600554604051633c38a5f560e01b81526001600160a01b039091169150633c38a5f590610963908990600690600401611d12565b6020604051808303816000875af1158015610982573d6000803e3d6000fd5b505050506040513d601f19601f820116820180604052508101906109a69190611e23565b50505050505050565b81600201546002036109d45760408051808201909152606080825260208201526108be565b5060038101805461ff0019166101001790555b610a048360400151604051806020016040528060008152506113ed565b610a8f5760055460408085015160608601519151634b04236b60e01b81526001600160a01b0390931692634b04236b92610a45928992909190600401611e55565b6020604051808303816000875af1158015610a64573d6000803e3d6000fd5b505050506040513d601f19601f82011682018060405250810190610a889190611e23565b5050505050565b600301805461ff0019166101001790555b505050565b6005546001600160a01b03163314610acf5760405162461bcd60e51b81526004016102c4906119f5565b60008381526002602052604090206003810154610100900460ff1615610b295760405162461bcd60e51b815260206004820152600f60248201526e149d5b881a5cc8199a5b9a5cda1959608a1b60448201526064016102c4565b6000839050610b4783604051806020016040528060008152506113ed565b610b4e5750815b60408051808201825260608082526020808301918252835180850190945260048452633ab9b2b960e11b848201529282528390526001848101805491820181556000908152929092208151919283926002909102909101908190610bb29082611bd5565b5060208201516001820190610bc79082611bd5565b505050600283018054906000610bdc83611e3c565b9091555050600554604051633c38a5f560e01b81526001600160a01b0390911690633c38a5f590610963908990600690600401611d12565b60008054610c2190611a62565b80601f0160208091040260200160405190810160405280929190818152602001828054610c4d90611a62565b8015610c9a5780601f10610c6f57610100808354040283529160200191610c9a565b820191906000526020600020905b815481529060010190602001808311610c7d57829003601f168201915b505050505081565b6004546001600160a01b03163314610cf25760405162461bcd60e51b815260206004820152601360248201527221b0b63632b91034b9903737ba1037bbb732b960691b60448201526064016102c4565b6000815111610d395760405162461bcd60e51b81526020600482015260136024820152724349442063616e6e6f7420626520656d70747960681b60448201526064016102c4565b6001610d458282611bd5565b5080604051610d549190611e8a565b604051908190038120907f25f99356a5ff3d29e95df0906ba17b40b7bb5c86a372ca12d27fcf3ce537f1ab90600090a250565b6003805460009081526002602081815260408084208054336001600160a01b0319909116178155948501805493860185905561ffff1990931660ff871617909255815180830190925260608083529082015290919060008054610de990611a62565b80601f0160208091040260200160405190810160405280929190818152602001828054610e1590611a62565b8015610e625780601f10610e3757610100808354040283529160200191610e62565b820191906000526020600020905b815481529060010190602001808311610e4557829003601f168201915b505050506020808401929092525060408051808201909152600681526573797374656d60d01b81830152825260018084018054918201815560009081529190912082518392600202909101908190610eba9082611bd5565b5060208201516001820190610ecf9082611bd5565b505050600482018054906000610ee483611e3c565b9091555050604080518082018252606081526020808201889052825180840190935260048352633ab9b2b960e11b838201529181526001848101805491820181556000908152929092208151919283926002909102909101908190610f499082611bd5565b5060208201516001820190610f5e9082611bd5565b505050600483018054906000610f7383611e3c565b9091555050600354610f86816001611ea6565b6003556001805460009190610f9a90611a62565b9050111561105a5760055460405163a252a95160e01b81526001600160a01b039091169063a252a95190610fda9084906001908c90600290600401611eb9565b6020604051808303816000875af1158015610ff9573d6000803e3d6000fd5b505050506040513d601f19601f8201168201806040525081019061101d9190611e23565b50835460405182916001600160a01b0316907f9697c88a6be3b3ed5062f2dcbd719a10914832320686f14e24f7756210a6685e90600090a3611109565b600554604051633c38a5f560e01b81526001600160a01b0390911690633c38a5f59061108d908490600690600401611d12565b6020604051808303816000875af11580156110ac573d6000803e3d6000fd5b505050506040513d601f19601f820116820180604052508101906110d09190611e23565b50835460405182916001600160a01b0316907f9697c88a6be3b3ed5062f2dcbd719a10914832320686f14e24f7756210a6685e90600090a35b93505050505b92915050565b6000818152600260205260408120600101546060919067ffffffffffffffff81111561114357611143611446565b60405190808252806020026020018201604052801561117657816020015b60608152602001906001900390816111615790505b50905060005b6000848152600260205260409020600101548110156112775760008481526002602052604090206001018054829081106111b8576111b8611a4c565b906000526020600020906002020160010180546111d490611a62565b80601f016020809104026020016040519081016040528092919081815260200182805461120090611a62565b801561124d5780601f106112225761010080835404028352916020019161124d565b820191906000526020600020905b81548152906001019060200180831161123057829003601f168201915b505050505082828151811061126457611264611a4c565b602090810291909101015260010161117c565b5092915050565b6000818152600260205260408120600101546060919067ffffffffffffffff8111156112ac576112ac611446565b6040519080825280602002602001820160405280156112df57816020015b60608152602001906001900390816112ca5790505b50905060005b60008481526002602052604090206001015481101561127757600084815260026020526040902060010180548290811061132157611321611a4c565b9060005260206000209060020201600001805461133d90611a62565b80601f016020809104026020016040519081016040528092919081815260200182805461136990611a62565b80156113b65780601f1061138b576101008083540402835291602001916113b6565b820191906000526020600020905b81548152906001019060200180831161139957829003601f168201915b50505050508282815181106113cd576113cd611a4c565b60209081029190910101526001016112e5565b60018054610c2190611a62565b6000816040516020016114009190611e8a565b60405160208183030381529060405280519060200120836040516020016114279190611e8a565b6040516020818303038152906040528051906020012014905092915050565b634e487b7160e01b600052604160045260246000fd5b604051610160810167ffffffffffffffff8111828210171561148057611480611446565b60405290565b604051601f8201601f1916810167ffffffffffffffff811182821017156114af576114af611446565b604052919050565b600082601f8301126114c857600080fd5b813567ffffffffffffffff8111156114e2576114e2611446565b6114f5601f8201601f1916602001611486565b81815284602083860101111561150a57600080fd5b816020850160208301376000918101602001919091529392505050565b60008060006060848603121561153c57600080fd5b8335925060208085013567ffffffffffffffff8082111561155c57600080fd5b818701915087601f83011261157057600080fd5b81358181111561158257611582611446565b8060051b611591858201611486565b918252838101850191858101908b8411156115ab57600080fd5b86860192505b838310156115e7578235858111156115c95760008081fd5b6115d78d89838a01016114b7565b83525091860191908601906115b1565b9750505050604087013592508083111561160057600080fd5b505061160e868287016114b7565b9150509250925092565b60006020828403121561162a57600080fd5b5035919050565b60006020828403121561164357600080fd5b81356001600160a01b038116811461165a57600080fd5b9392505050565b803567ffffffffffffffff8116811461167957600080fd5b919050565b803563ffffffff8116811461167957600080fd5b6000806000606084860312156116a757600080fd5b83359250602084013567ffffffffffffffff808211156116c657600080fd5b9085019061016082880312156116db57600080fd5b6116e361145c565b8235828111156116f257600080fd5b6116fe898286016114b7565b82525060208301358281111561171357600080fd5b61171f898286016114b7565b60208301525060408301358281111561173757600080fd5b611743898286016114b7565b60408301525060608301358281111561175b57600080fd5b611767898286016114b7565b60608301525061177960808401611661565b608082015260a08301358281111561179057600080fd5b61179c898286016114b7565b60a08301525060c0830135828111156117b457600080fd5b6117c0898286016114b7565b60c08301525060e0830135828111156117d857600080fd5b6117e4898286016114b7565b60e0830152506101006117f881850161167e565b9082015261012061180a84820161167e565b9082015261014061181c84820161167e565b908201529350604086013591508082111561183657600080fd5b5061160e868287016114b7565b60008060006060848603121561185857600080fd5b83359250602084013567ffffffffffffffff8082111561187757600080fd5b611883878388016114b7565b9350604086013591508082111561183657600080fd5b60005b838110156118b457818101518382015260200161189c565b50506000910152565b600081518084526118d5816020860160208601611899565b601f01601f19169290920160200192915050565b60208152600061165a60208301846118bd565b60006020828403121561190e57600080fd5b813567ffffffffffffffff81111561192557600080fd5b611931848285016114b7565b949350505050565b6000806040838503121561194c57600080fd5b823567ffffffffffffffff81111561196357600080fd5b61196f858286016114b7565b925050602083013560ff8116811461198657600080fd5b809150509250929050565b600060208083016020845280855180835260408601915060408160051b87010192506020870160005b828110156119e857603f198886030184526119d68583516118bd565b945092850192908501906001016119ba565b5092979650505050505050565b60208082526014908201527343616c6c6572206973206e6f74206f7261636c6560601b604082015260600190565b634e487b7160e01b600052601160045260246000fd5b8181038181111561110f5761110f611a23565b634e487b7160e01b600052603260045260246000fd5b600181811c90821680611a7657607f821691505b602082108103611a9657634e487b7160e01b600052602260045260246000fd5b50919050565b6000808354611aaa81611a62565b60018281168015611ac25760018114611ad757611b06565b60ff1984168752821515830287019450611b06565b8760005260208060002060005b85811015611afd5781548a820152908401908201611ae4565b50505082870194505b50929695505050505050565b60008251611b24818460208701611899565b7305052932b632bb30b73a1031b7b73a32bc3a1d0560611b920191825250601401919050565b60008351611b5c818460208801611899565b835190830190611b70818360208801611899565b600560f91b9101908152600101949350505050565b601f821115610aa0576000816000526020600020601f850160051c81016020861015611bae5750805b601f850160051c820191505b81811015611bcd57828155600101611bba565b505050505050565b815167ffffffffffffffff811115611bef57611bef611446565b611c0381611bfd8454611a62565b84611b85565b602080601f831160018114611c385760008415611c205750858301515b600019600386901b1c1916600185901b178555611bcd565b600085815260208120601f198616915b82811015611c6757888601518255948401946001909101908401611c48565b5085821015611c855787850151600019600388901b60f8161c191681555b5050505050600190811b01905550565b60008154611ca281611a62565b808552602060018381168015611cbf5760018114611cd957611d07565b60ff1985168884015283151560051b880183019550611d07565b866000528260002060005b85811015611cff5781548a8201860152908301908401611ce4565b890184019650505b505050505092915050565b8281526040602082015260006101a0806040840152611d356101e0840185611c95565b600185015460000b6060850152603f1984820381016080860152611d5c8260028801611c95565b600387015463ffffffff811660a088015260201c60000b60c0870152858103820160e08701529150611d918260048801611c95565b915060058601546101008601528085830301610120860152611db68260068801611c95565b9150600786015461014086015260088601546101608601528085830301610180860152611de68260098801611c95565b9150808583030183860152611dfe82600a8801611c95565b925080858403016101c08601525050611e1a81600b8601611c95565b95945050505050565b600060208284031215611e3557600080fd5b5051919050565b600060018201611e4e57611e4e611a23565b5060010190565b838152606060208201526000611e6e60608301856118bd565b8281036040840152611e8081856118bd565b9695505050505050565b60008251611e9c818460208701611899565b9190910192915050565b8082018082111561110f5761110f611a23565b848152608060208201526000611ed26080830186611c95565b8281036040840152611ee481866118bd565b91505063ffffffff831660608301529594505050505056fea264697066735822122091444e3cc383c554b28c310f4e5e04009b1197333da5b978ab5243883eef285864736f6c634300081800335b7b2274797065223a2266756e6374696f6e222c2266756e6374696f6e223a7b226e616d65223a227765625f736561726368222c226465736372697074696f6e223a225365617263682074686520696e7465726e6574222c22706172616d6574657273223a7b2274797065223a226f626a656374222c2270726f70657274696573223a7b227175657279223a7b2274797065223a22737472696e67222c226465736372697074696f6e223a22536561726368207175657279227d7d2c227265717569726564223a5b227175657279225d7d7d7d2c7b2274797065223a2266756e6374696f6e222c2266756e6374696f6e223a7b226e616d65223a22696d6167655f67656e65726174696f6e222c226465736372697074696f6e223a2247656e65726174657320616e20696d616765207573696e672044616c6c652d32222c22706172616d6574657273223a7b2274797065223a226f626a656374222c2270726f70657274696573223a7b2270726f6d7074223a7b2274797065223a22737472696e67222c226465736372697074696f6e223a2244616c6c652d322070726f6d707420746f2067656e657261746520616e20696d616765227d7d2c227265717569726564223a5b2270726f6d7074225d7d7d7d5d",
  "linkReferences": {},
  "deployedLinkReferences": {}
}